:100000000C945D000C9485000C9485000C94850084
:100010000C9485000C9485000C9485000C9485004C
:100020000C9485000C9485000C9485000C9485003C
:100030000C9485000C9485000C9485000C9485002C
:100040000C94AA020C9485000C941A030C94F402EC
:100050000C9485000C9485000C9485000C9485000C
:100060000C9485000C9485000000000024002700FB
:100070002A0000000000250028002B0004040404CE
:100080000404040402020202020203030303030342
:10009000010204081020408001020408102001021F
:1000A00004081020000000080002010000030407FB
:1000B00000000000000000004C0311241FBECFEF21
:1000C000D8E0DEBFCDBF11E0A0E0B1E0E2E9FBE0A7
:1000D00002C005900D92A637B107D9F722E0A6E736
:1000E000B1E001C01D92AE33B207E1F710E0CDE5FB
:1000F000D0E004C02197FE010E94C105CC35D10794
:10010000C9F70E9491030C94C7050C94000090E07D
:10011000FC01EC55FF4F2491FC01E057FF4F349157
:10012000FC01E458FF4FE491EE23C9F0222339F09B
:10013000233001F1A8F4213019F1223029F1F0E047
:10014000EE0FFF1FEE58FF4FA591B4918FB7F894B3
:10015000EC91611126C030953E233C938FBF0895EA
:100160002730A9F02830C9F0243049F78091800069
:100170008F7D03C0809180008F7780938000DFCFD8
:1001800084B58F7784BDDBCF84B58F7DFBCF809125
:10019000B0008F778093B000D2CF8091B0008F7D78
:1001A000F9CF3E2BDACFCF93DF9390E0FC01E057FD
:1001B000FF4F249184589F4FFC0184918823D1F0F4
:1001C00090E0880F991FFC01E859FF4FA591B49169
:1001D000FC01EE58FF4FC591D49161110EC09FB73D
:1001E000F8948C91E22FE0958E238C932881E22362
:1001F000E8839FBFDF91CF9108958FB7F894EC917A
:10020000E22BEC938FBFF6CF8E50806480937C00FE
:1002100080917A00806480937A0080917A0086FDD4
:10022000FCCF809178009091790008953FB7F894C1
:1002300080917F0190918001A0918101B091820114
:1002400026B5A89B05C02F3F19F00196A11DB11D31
:100250003FBFBA2FA92F982F8827BC01CD01620F6D
:10026000711D811D911D42E0660F771F881F991F28
:100270004A95D1F70895AF92BF92CF92DF92EF9255
:10028000FF920F931F93CF93DF936C017B018B0140
:10029000040F151FEB015E01AE18BF08C017D10790
:1002A00059F06991D601ED91FC910190F081E02D1A
:1002B000C6010995892B79F7C501DF91CF911F916F
:1002C0000F91FF90EF90DF90CF90BF90AF90089587
:1002D000FC01538D448D252F30E0842F90E0821B4C
:1002E000930B541710F0CF96089501970895FC01D1
:1002F000918D828D981761F0A28DAE0FBF2FB11D29
:100300005D968C91928D9F5F9F73928F90E0089580
:100310008FEF9FEF0895FC01918D828D981731F03A
:10032000828DE80FF11D858D90E008958FEF9FEF8E
:100330000895FC01918D228D892F90E0805C9F4F64
:10034000821B91098F739927089583E891E00E9499
:10035000990121E0892B09F420E0822F089580E0A3
:1003600090E0892B29F00E94A50181110C940000D6
:100370000895FC01A48DA80FB92FB11DA35ABF4F3A
:100380002C91848D90E001968F739927848FA68994
:10039000B7892C93A089B1898C91837080648C93E8
:1003A000938D848D981306C00288F389E02D808197
:1003B0008F7D80830895EF92FF920F931F93CF93C9
:1003C000DF93EC0181E0888F9B8D8C8D98131AC090
:1003D000E889F989808185FF15C09FB7F894EE8977
:1003E000FF896083E889F9898081837080648083D4
:1003F0009FBF81E090E0DF91CF911F910F91FF901F
:10040000EF900895F62E0B8D10E00F5F1F4F0F73C6
:100410001127E02E8C8D8E110CC00FB607FCFACF81
:10042000E889F989808185FFF5CFCE010E94B90165
:10043000F1CFEB8DEC0FFD2FF11DE35AFF4FF08252
:100440009FB7F8940B8FEA89FB8980818062CFCFB8
:10045000CF93DF93EC01888D8823B9F0AA89BB89FB
:10046000E889F9898C9185FD03C0808186FD0DC0E6
:100470000FB607FCF7CF8C9185FFF2CF808185FF07
:10048000EDCFCE010E94B901E9CFDF91CF91089560
:100490000F931F93FC018085811104C080E01F91A0
:1004A0000F9108959185992319F010861186F7CF41
:1004B0009FB7F89440917B0150917C0160917D0140
:1004C00070917E019FBF0481158126813781401B79
:1004D000510B620B730B0081118122813381401714
:1004E00051076207730708F7D9CFFC014083518396
:1004F000628373832FB7F89480917B0190917C0184
:10050000A0917D01B0917E012FBF84839583A68346
:10051000B78381E0808711860895CF93DF93FC0134
:1005200001900020E9F73197AF01481B590BBC013E
:1005300083E891E00E943B01EC0142E050E062E17F
:1005400071E083E891E00E943B018C0F9D1FDF91D9
:10055000CF9108951F920F920FB60F9211242F93EF
:100560003F938F939F93AF93BF9380917B01909123
:100570007C01A0917D01B0917E0130917A0123E050
:10058000230F2D3758F50196A11DB11D20937A0137
:1005900080937B0190937C01A0937D01B0937E01B9
:1005A00080917F0190918001A0918101B0918201A1
:1005B0000196A11DB11D80937F0190938001A093AE
:1005C0008101B0938201BF91AF919F918F913F9133
:1005D0002F910F900FBE0F901F90189526E8230FB4
:1005E0000296A11DB11DD2CF1F920F920FB60F928E
:1005F00011242F933F934F935F936F937F938F9328
:100600009F93AF93BF93EF93FF9383E891E00E9492
:10061000B901FF91EF91BF91AF919F918F917F9120
:100620006F915F914F913F912F910F900FBE0F905F
:100630001F9018951F920F920FB60F9211242F93AF
:100640008F939F93EF93FF93E0919301F091940127
:100650008081E0919901F0919A0182FD1BC0908107
:1006600080919C018F5F8F7320919D01821741F0D3
:10067000E0919C01F0E0ED57FE4F958F80939C0137
:10068000FF91EF919F918F912F910F900FBE0F903F
:100690001F9018958081F4CFE3E8F1E01382128275
:1006A00088EE93E0A0E0B0E084839583A683B783CF
:1006B00084E091E09183808385EC90E09587848746
:1006C00084EC90E09787868780EC90E0918B808B1C
:1006D00081EC90E0938B828B82EC90E0958B848B05
:1006E00086EC90E0978B868B118E128E138E148E73
:1006F000E4E3F2E0108614821582168217821186D6
:10070000EAE2F2E0108614821582168217821186C0
:10071000E0E2F2E0108614821582168217821186BA
:100720000895789484B5826084BD84B5816084BD69
:1007300085B5826085BD85B5816085BD80916E007F
:10074000816080936E0010928100809181008260B0
:1007500080938100809181008160809381008091ED
:1007600080008160809380008091B10084608093DC
:10077000B1008091B00081608093B00080917A00D8
:10078000846080937A0080917A00826080937A00FE
:1007900080917A00816080937A0080917A008068ED
:1007A00080937A001092C100E0919301F09194013E
:1007B00082E08083E0918F01F09190011082E091BE
:1007C0009101F091920180E1808310929B01E09170
:1007D0009701F091980186E08083E0919501F09176
:1007E0009601808180618083E0919501F09196016E
:1007F000808188608083E0919501F09196018081ED
:1008000080688083E0919501F091960180818F7DD1
:1008100080830E9416014B015C0148EEC42E43E028
:10082000D42EE12CF12C0E941601681979098A094D
:100830009B09683E734081059105A8F321E0C21A27
:10084000D108E108F10888EE880E83E0981EA11C0B
:10085000B11CC114D104E104F10429F761E08DE079
:100860000E94D30061E083E00E94D30061E089E050
:100870000E94D30061E08CE00E94D30060E082E13E
:100880000E94D30060E08CE00E94870060E08FE06F
:100890000E94D30061E08EE00E94D30061E08EE010
:1008A0000E94D30060E08EE00E94870060E083E059
:1008B0000E94870060E089E00E94870048EE53E0D4
:1008C00060E070E08AE292E00E94750282EB282EDE
:1008D00080E0382E00E011E090E0692E90E0792E63
:1008E0005524539420E4C22E27E7D22E2BE1E22E8A
:1008F000F12C30E8832E30E7932EA12CB12C84E329
:1009000092E00E9448028AE292E00E94480280E25D
:1009100092E00E9448028091320281111BC18091B5
:100920002E0290912F02A0913002B091310240919D
:100930002A0250912B0260912C0270912D02840F9B
:10094000951FA61FB71F80932E0290932F02A0938E
:100950003002B093310250923202109233028091F1
:100960003C0281114EC061E08CE00E94870082E170
:100970000E940401EC018091790181111AC085E186
:1009800091E00E948D02CE01C297909378018093EE
:10099000770161E083E00E948700509279015092D4
:1009A0003D0248E95AE360E070E084E392E00E948F
:1009B00075022091770130917801C9018C1B9D0B44
:1009C00097FF03C091958195910984369105ACF00C
:1009D000C217D30774F585E391E00E948D02D0938E
:1009E0007801C093770150923D0248E853E160E0FE
:1009F00070E084E392E00E94750260E08CE00E9467
:100A00008700809128028111A5C061E08EE00E94DC
:100A1000D300F1018491833009F47AC018F5813054
:100A200099F1823009F46FC061E08EE00E94870086
:100A30002FC085E591E00E948D0260E083E00E9476
:100A40008700109279018091760140EA5BEB6DE0BE
:100A500070E0882321F040E457E76BE170E05092AA
:100A60003D02C7CF873009F45DC0883009F462C009
:100A70008430D1F680918000806280938000109352
:100A80008B0000938A0004C084B5806884BD17BCC5
:100A90008FE00E940401EC0161E08EE00E94D3002F
:100AA00060E08EE00E9487008091760181114AC04B
:100AB000E3970CF05BC05092760161E089E00E9400
:100AC0008700509229028092200290922102A092E7
:100AD0002202B09223022FB7F89480917B0190916B
:100AE0007C01A0917D01B0917E012FBF80932402F3
:100AF00090932502A0932602B093270250922802D9
:100B00001092290227C084B5806284BD18BCC0CF72
:100B1000809180008068809380001093890000930A
:100B20008800B6CF8091B00080688093B0001092AA
:100B3000B300AECF8091B00080628093B00010927D
:100B4000B400A6CFE39794F01092760160E089E0BC
:100B50000E9487006114710409F4D1CE0E94A5019E
:100B6000882309F4CCCE0E940000C9CE50922902FD
:100B7000C0922002D0922102E0922202F09223023F
:100B8000AACFEE0FFF1F0590F491E02D0994F89481
:020B9000FFCF95
:100B920000000000DB013B01680128029901770196
:100BA2008B010D0A0057617465722070756D70209B
:100BB2006973207374617274696E67207570206145
:100BC2006761696E0057617465722069732073747E
:100BD200696C6C206265696E672070756D70656402
:100BE200206F757400576174657220697320647296
:100BF20061696E696E6720696E746F2066697368D9
:060C02002074616E6B001E
:00000001FF
